:030000000208777C
:0C087700787FE4F6D8FD758109020800C6
:10080000E580540F750800F509640245087003750A
:10081000A00AE50964044508700375A006E50964AB
:10082000064508700375A009E509640845087003CA
:1008300075A005E509640545087002F5A0E50964A1
:10084000014508700675A00A75A006E50964034510
:1008500008700675A00A75A009E5096407450870C7
:100860000675A00575A006E509640945087091752F
:07087000A00575A0098089B5
:00000001FF
