:0300000002087A79
:0C087A00787FE4F6D8FD75810F020800BD
:0708450075A0057FE87E03AA
:10084C00E4F50CF50DC3E50D9FE50C9E500A050D66
:10085C00E50D70F1050C80EDE4F50EF50F050FE5D7
:0E086C000F7002050EB4FBF5E50EB404F02289
:10080000E590540C750800F5094508700375A00AB9
:10081000E50964084508700912084575A009120821
:100820004CE50964044508700912084575A00612D4
:10083000084CE509640C450870C612084575A00906
:0508400012084C80BB12
:00000001FF
